{
  "transactions": [
    {
      "hash": "0xf198e657455b8e1e70909696a7f2c9bfe905dd6c2e4b061c9d5b8322cf2656b3",
      "transactionType": "CALL",
      "contractName": null,
      "contractAddress": "0x9d29d33d4329640e96cc259e141838eb3eb2f1d9",
      "function": "flip(bool)",
      "arguments": [
        "true"
      ],
      "transaction": {
        "from": "0x37666e193fe2da22af16bcbb83d613ea86844068",
        "to": "0x9d29d33d4329640e96cc259e141838eb3eb2f1d9",
        "gas": "0xb37f",
        "value": "0x0",
        "input": "0x1d263f670000000000000000000000000000000000000000000000000000000000000001",
        "nonce": "0x34",
        "chainId": "0xaa36a7"
      },
      "additionalContracts": [],
      "isFixedGasLimit": false
    },
    {
      "hash": "0x5b3636fdc2d0a589ce9695c63b8652541449b9ab252c68bb05a57e08de969024",
      "transactionType": "CALL",
      "contractName": null,
      "contractAddress": "0x9d29d33d4329640e96cc259e141838eb3eb2f1d9",
      "function": "contribute()",
      "arguments": [],
      "transaction": {
        "from": "0x37666e193fe2da22af16bcbb83d613ea86844068",
        "to": "0x9d29d33d4329640e96cc259e141838eb3eb2f1d9",
        "gas": "0xab38",
        "value": "0x0",
        "input": "0xd7bb99ba",
        "nonce": "0x35",
        "chainId": "0xaa36a7"
      },
      "additionalContracts": [],
      "isFixedGasLimit": false
    }
  ],
  "receipts": [
    {
      "status": "0x1",
      "cumulativeGasUsed": "0x56985c",
      "logs": [],
      "logsBloom": "0x00000000000000000000000000000000000000000000000000000000000000000000000000000000000000000000000000000000000000000000000000000000000000000000000000000000000000000000000000000000000000000000000000000000000000000000000000000000000000000000000000000000000000000000000000000000000000000000000000000000000000000000000000000000000000000000000000000000000000000000000000000000000000000000000000000000000000000000000000000000000000000000000000000000000000000000000000000000000000000000000000000000000000000000000000000000",
      "type": "0x2",
      "transactionHash": "0xf198e657455b8e1e70909696a7f2c9bfe905dd6c2e4b061c9d5b8322cf2656b3",
      "transactionIndex": "0x2b",
      "blockHash": "0xaaf7a8f5884738bdab1d194bb4bce27072f5dd005223dda48554dd05baeed280",
      "blockNumber": "0x60faf7",
      "gasUsed": "0x81f4",
      "effectiveGasPrice": "0x732fbb2e6",
      "from": "0x37666e193fe2da22af16bcbb83d613ea86844068",
      "to": "0x9d29d33d4329640e96cc259e141838eb3eb2f1d9",
      "contractAddress": null
    },
    {
      "status": "0x1",
      "cumulativeGasUsed": "0x570d6f",
      "logs": [],
      "logsBloom": "0x00000000000000000000000000000000000000000000000000000000000000000000000000000000000000000000000000000000000000000000000000000000000000000000000000000000000000000000000000000000000000000000000000000000000000000000000000000000000000000000000000000000000000000000000000000000000000000000000000000000000000000000000000000000000000000000000000000000000000000000000000000000000000000000000000000000000000000000000000000000000000000000000000000000000000000000000000000000000000000000000000000000000000000000000000000000",
      "type": "0x2",
      "transactionHash": "0x5b3636fdc2d0a589ce9695c63b8652541449b9ab252c68bb05a57e08de969024",
      "transactionIndex": "0x2c",
      "blockHash": "0xaaf7a8f5884738bdab1d194bb4bce27072f5dd005223dda48554dd05baeed280",
      "blockNumber": "0x60faf7",
      "gasUsed": "0x7513",
      "effectiveGasPrice": "0x732fbb2e6",
      "from": "0x37666e193fe2da22af16bcbb83d613ea86844068",
      "to": "0x9d29d33d4329640e96cc259e141838eb3eb2f1d9",
      "contractAddress": null
    }
  ],
  "libraries": [],
  "pending": [],
  "returns": {},
  "timestamp": 1721644898,
  "chain": 11155111,
  "commit": "3ca3b72"
}