{
  "transactions": [
    {
      "hash": "0xa036fc3f81997472181f855ecefd118ce1e80bec5c5cb7d98e621eba7db0df6a",
      "transactionType": "CALL",
      "contractName": null,
      "contractAddress": "0x9d29d33d4329640e96cc259e141838eb3eb2f1d9",
      "function": "flip(bool)",
      "arguments": [
        "true"
      ],
      "transaction": {
        "from": "0x37666e193fe2da22af16bcbb83d613ea86844068",
        "to": "0x9d29d33d4329640e96cc259e141838eb3eb2f1d9",
        "gas": "0xb37f",
        "value": "0x0",
        "input": "0x1d263f670000000000000000000000000000000000000000000000000000000000000001",
        "nonce": "0x36",
        "chainId": "0xaa36a7"
      },
      "additionalContracts": [],
      "isFixedGasLimit": false
    },
    {
      "hash": "0x3bee61cf67631817839ea017adef5b2bf7905f97e50f1096ba04ee406f92b3d0",
      "transactionType": "CALL",
      "contractName": null,
      "contractAddress": "0x9d29d33d4329640e96cc259e141838eb3eb2f1d9",
      "function": "contribute()",
      "arguments": [],
      "transaction": {
        "from": "0x37666e193fe2da22af16bcbb83d613ea86844068",
        "to": "0x9d29d33d4329640e96cc259e141838eb3eb2f1d9",
        "gas": "0xab38",
        "value": "0x0",
        "input": "0xd7bb99ba",
        "nonce": "0x37",
        "chainId": "0xaa36a7"
      },
      "additionalContracts": [],
      "isFixedGasLimit": false
    },
    {
      "hash": "0xed55c97b1aec13a7f710a47dbaccd4ec30e59e87feb9830cf2d555b4ec603ac5",
      "transactionType": "CALL",
      "contractName": null,
      "contractAddress": "0x9d29d33d4329640e96cc259e141838eb3eb2f1d9",
      "function": "transfer(address,uint256)",
      "arguments": [
        "0x37666e193fE2dA22AF16BcBB83D613eA86844068",
        "1"
      ],
      "transaction": {
        "from": "0x37666e193fe2da22af16bcbb83d613ea86844068",
        "to": "0x9d29d33d4329640e96cc259e141838eb3eb2f1d9",
        "gas": "0xc99c",
        "value": "0x0",
        "input": "0xa9059cbb00000000000000000000000037666e193fe2da22af16bcbb83d613ea868440680000000000000000000000000000000000000000000000000000000000000001",
        "nonce": "0x38",
        "chainId": "0xaa36a7"
      },
      "additionalContracts": [],
      "isFixedGasLimit": false
    }
  ],
  "receipts": [
    {
      "status": "0x1",
      "cumulativeGasUsed": "0x8b85ca",
      "logs": [],
      "logsBloom": "0x00000000000000000000000000000000000000000000000000000000000000000000000000000000000000000000000000000000000000000000000000000000000000000000000000000000000000000000000000000000000000000000000000000000000000000000000000000000000000000000000000000000000000000000000000000000000000000000000000000000000000000000000000000000000000000000000000000000000000000000000000000000000000000000000000000000000000000000000000000000000000000000000000000000000000000000000000000000000000000000000000000000000000000000000000000000",
      "type": "0x2",
      "transactionHash": "0x3bee61cf67631817839ea017adef5b2bf7905f97e50f1096ba04ee406f92b3d0",
      "transactionIndex": "0x52",
      "blockHash": "0x11cdcc973d322961d621be0560bd081bb964c9dadacb74b75a34ccec11081c77",
      "blockNumber": "0x60fb6c",
      "gasUsed": "0x7513",
      "effectiveGasPrice": "0x697a6a8f3",
      "from": "0x37666e193fe2da22af16bcbb83d613ea86844068",
      "to": "0x9d29d33d4329640e96cc259e141838eb3eb2f1d9",
      "contractAddress": null
    },
    {
      "status": "0x1",
      "cumulativeGasUsed": "0x8c17c1",
      "logs": [],
      "logsBloom": "0x00000000000000000000000000000000000000000000000000000000000000000000000000000000000000000000000000000000000000000000000000000000000000000000000000000000000000000000000000000000000000000000000000000000000000000000000000000000000000000000000000000000000000000000000000000000000000000000000000000000000000000000000000000000000000000000000000000000000000000000000000000000000000000000000000000000000000000000000000000000000000000000000000000000000000000000000000000000000000000000000000000000000000000000000000000000",
      "type": "0x2",
      "transactionHash": "0xed55c97b1aec13a7f710a47dbaccd4ec30e59e87feb9830cf2d555b4ec603ac5",
      "transactionIndex": "0x53",
      "blockHash": "0x11cdcc973d322961d621be0560bd081bb964c9dadacb74b75a34ccec11081c77",
      "blockNumber": "0x60fb6c",
      "gasUsed": "0x91f7",
      "effectiveGasPrice": "0x697a6a8f3",
      "from": "0x37666e193fe2da22af16bcbb83d613ea86844068",
      "to": "0x9d29d33d4329640e96cc259e141838eb3eb2f1d9",
      "contractAddress": null
    }
  ],
  "libraries": [],
  "pending": [],
  "returns": {},
  "timestamp": 1721646783,
  "chain": 11155111,
  "commit": "3ca3b72"
}